:020000040800F2
:1000000000800120FD1A0008911A0008931A0008C8
:10001000951A0008971A0008991A000800000000B5
:100020000000000000000000000000009B1A000813
:100030009D1A0008000000009F1A0008A11A00087D
:100040004D1B00084D1B00084D1B00084D1B0008F0
:100050004D1B00084D1B00084D1B00084D1B0008E0
:100060004D1B00084D1B00084D1B00084D1B0008D0
:100070004D1B00084D1B00084D1B00084D1B0008C0
:100080004D1B00084D1B00084D1B00080000000020
:100090000000000000000000000000004D1B0008F0
:1000A0004D1B00084D1B00084D1B00084D1B000890
:1000B0004D1B00084D1B00084D1B00084D1B000880
:1000C0004D1B00084D1B00084D1B00084D1B000870
:1000D0004D1B00084D1B00084D1B000800000000D0
:1000E0004D1B00084D1B00084D1B000800000000C0
:1000F0000000000000000000000000004D1B000890
:10010000000000004D1B00084D1B00084D1B00089F
:1001100000000000000000000000000000000000DF
:100120004D1B00084D1B00084D1B00084D1B00080F
:100130004D1B00080000000000000000000000004F
:100140000000000000000000000000004D1B00083F
:100150004D1B00084D1B00084D1B00084D1B0008DF
:100160004D1B00084D1B00080000000000000000AF
:10017000000000000000000000000000000000007F
:10018000000000004D1B00080000000000000000FF
:040190004D1B0008FB
:1001A00010B5054C237833B9044B13B10448AFF3B1
:1001B00000800123237010BDDC010020000000003E
:1001C0006425000808B5034B1BB103490348AFF38E
:1001D000008008BD00000000E00100206425000848
:1001E00001F0FF01102A2BDB10F0070F08D010F8E8
:1001F000013B013A8B422DD010F0070F42B3F6D1EC
:10020000F0B441EA012141EA014122F007047FF004
:1002100000070023F0E80256083C85EA010586EA5B
:10022000010685FA47F5A3FA87F586FA47F6A5FA97
:1002300087F68EB9EED1F0BC01F0FF0102F00702A3
:1002400032B110F8013B013A83EA010313B1F8D14E
:100250000020704701387047002D06BF354603382F
:10026000073815F0010F07D1013015F4807F02BF68
:10027000013015F4C03F0130F0BC0138704700BFB9
:1002800053B94AB9002908BF00281CBF4FF0FF31FD
:100290004FF0FF3000F07AB9ADF1080C6DE904CEF3
:1002A00000F006F8DDF804E0DDE9022304B0704751
:1002B0002DE9F0478C460D460446089E002B51D18F
:1002C0008A4217466DD9B2FA82FEBEF1000F0BD0FA
:1002D000CEF1200C01FA0EF520FA0CFC02FA0EF712
:1002E0004CEA050C00FA0EF44FEA174A250CBCFB49
:1002F000FAF81FFA87F90AFB18CC45EA0C4508FB07
:1003000009F3AB420AD9ED1908F1FF3280F02381DD
:10031000AB4240F22081A8F102083D44ED1AA4B29C
:10032000B5FBFAF00AFB105544EA054400FB09F955
:10033000A14509D9E41900F1FF3380F00A81A145F4
:1003400040F2078102383C44A4EB090440EA08402B
:100350000021002E61D024FA0EF400233460736073
:10036000BDE8F0878B4207D9002E54D0002186E8E3
:1003700021000846BDE8F087B3FA83F1002940F078
:100380008E80AB4202D3824200F2FA80841A65EB7F
:1003900003050120AC46002E3FD086E81010BDE8D2
:1003A000F08712B90127B7FBF2F7B7FA87FEBEF163
:1003B000000F34D1EB1B3A0C1FFA87FC0121B3FB71
:1003C000F2F8250C02FB183345EA03450CFB08F351
:1003D000AB4207D9ED1908F1FF3002D2AB4200F26F
:1003E000D1808046ED1AA3B2B5FBF2F002FB1055A6
:1003F00043EA05440CFB00FCA44507D9E41900F1CD
:10040000FF3302D2A44500F2B8801846A4EB0C04D6
:1004100040EA08409DE731463046BDE8F087CEF11E
:10042000200405FA0EF307FA0EF720FA04F83A0C46
:1004300025FA04F448EA0308B4FBF2F14FEA184540
:1004400002FB11441FFA87FC45EA044501FB0CF34B
:10045000AB4200FA0EF409D9ED1901F1FF3080F03A
:100460008A80AB4240F2878002393D44EB1A1FFA82
:1004700088F5B3FBF2F002FB103345EA034500FBBD
:100480000CF3AB4207D9ED1900F1FF386FD2AB4244
:100490006DD902383D44EB1A40EA01418FE7C1F1C2
:1004A000200722FA07F88B4005FA01F448EA030313
:1004B00020FA07FE4FEA134CFD404EEA040EB5FB4E
:1004C000FCF94FEA1E440CFB19551FFA83F844EA65
:1004D000054509FB08F4AC4202FA01F200FA01FA00
:1004E00008D9ED1809F1FF3043D2AC4241D9A9F146
:1004F00002091D442D1B1FFA8EFEB5FBFCF00CFB00
:1005000010554EEA054400FB08F8A04507D9E41849
:1005100000F1FF3529D2A04527D902381C4440EA12
:100520000940A4EB0804A0FB02894C45C6464D4691
:1005300015D312D056B1BAEB0E0364EB050404FADE
:1005400007F7CB401F43CC40376074600021BDE803
:10055000F0871846F8E69046E0E6C245EAD2B8EBE6
:10056000020E69EB03050138E4E72846D7E7404669
:1005700091E78146BEE7014678E702383C4445E70B
:10058000084608E7A8F102083D442BE7704700BF82
:1005900038B50E4A0E4B054618784FF47A73B3FB04
:1005A000F0F31068B0FBF3F000F09CF8044658B983
:1005B0000F2D09D8024629464FF0FF3000F05EF8B3
:1005C000044B20461D6038BD012038BD08000020C6
:1005D000000000200400002008B50B4B1A6842F40C
:1005E00000721A601A6842F480621A601A6842F453
:1005F00080721A60032000F02FF80020FFF7C8FF78
:1006000001F068F9002008BD003C0240034A044B99
:1006100011681B780B441360704700BF0402002070
:1006200000000020014B1868704700BF0402002042
:1006300038B50446FFF7F6FF631C1CBF054B1B785B
:10064000054618BFE418FFF7EDFF401B8442FAD8B7
:1006500038BD00BF00000020074AD36823F4E063E0
:100660001B041B0C43F0BF63000243F4003300F48F
:10067000E0600343D360704700ED00E0174B30B5F6
:10068000DC68C4F30224C4F10703251D042B28BF32
:100690000423062D4FF0010505FA03F303F1FF33A0
:1006A0008CBF033C00241940A14005FA04F4013C2E
:1006B0002240002842EA01024FEA0212AFBF00F1D5
:1006C000604000F00F00064BD2B2A5BF00F56140BC
:1006D000D2B21A5480F8002330BD00BF00ED00E014
:1006E00014ED00E00138B0F1807F0AD2064B074AD2
:1006F0005860F02182F823100020072298601A60C9
:1007000070470120704700BF10E000E000ED00E0FE
:10071000044B1A6804280CBF42F0040222F00402C1
:100720001A60704710E000E0704708B5FFF7FCFF63
:1007300008BD00002DE9F04F85B00B68DFF89C8103
:10074000644A01934FF001090023019C09FA03F761
:1007500007EA0406B74240F0AD804C6824F0100A66
:10076000BAF1020F16D14FEAD30C00EB8C0C03F058
:10077000070BDCF820504FEA8B0B4FF00F0E0EFAF0
:100780000BFE25EA0E0E0D6905FA0BF545EA0E057E
:10079000CCF820504FEA430C0325D0F800B005FAFE
:1007A0000CF5ED4304F0030E0BEA050B0EFA0CFEFC
:1007B0000AF1FF3A4EEA0B0EBAF1010F0095C0F8AC
:1007C00000E015D8D0F808E005EA0E0ECD6805FA6D
:1007D0000CFA4AEA0E0EC0F808E0D0F804E02EEA5F
:1007E0000707C4F3001E0EFA03FE4EEA0707476030
:1007F000C768009D3D408F6807FA0CF73D43C56010
:10080000E50057D54FF0000BCDF80CB0D8F8447088
:10081000314D47F48047C8F84470D8F8447007F465
:1008200080470397039F23F0030707F1804707F5ED
:100830009C3703F0030CD7F808A04FEA8C0C4FF05C
:100840000F0E0EFA0CFEA8422AEA0E0E39D005F55C
:100850008065A84237D005F58065A84235D005F5FA
:100860008065A84233D005F58065A84214BF0725EE
:10087000042505FA0CF545EA0E05BD601568F74339
:1008800014F4803F0CBF3D4035431560556814F4A7
:10089000003F0CBF3D4035435560956814F4801F00
:1008A0000CBF3D4035439560D568A40254BF3D4020
:1008B0003543D5600133102B7FF447AF05B0BDE859
:1008C000F08F5D46D5E70125D3E70225D1E7032563
:1008D000CFE700BF003C014000000240003802406A
:1008E0000AB1816170470904FBE700002DE9F3417B
:1008F000044618B9012002B0BDE8F0810368DD07A5
:1009000010D42368980758D423681A0700F19A80F6
:1009100023685B0700F1B880A269002A40F01981C2
:100920000020E8E7A64B9A6802F00C02042A07D0E0
:100930009A6802F00C02082A0AD15B68590207D5AE
:100940009F4B1B689A03DCD56368002BD9D1D1E794
:1009500063689B4DB3F5803F11D12B6843F480331E
:100960002B60FFF75FFE964D06462B689B03C8D4AD
:10097000FFF758FE801B6428F7D90320BBE7B3F5C7
:10098000A02F04D12B6843F480232B60E5E72A686D
:1009900022F480322A602A6822F480222A60002B06
:1009A000DFD1FFF73FFE06462B689F03A9D5FFF76F
:1009B00039FE801B6428F7D9DFE7814B9A6812F073
:1009C0000C0F07D09A6802F00C02082A11D15B685C
:1009D0005E020ED47A4B1A68950702D5E268012AA6
:1009E00088D11A68216922F0F80242EAC1021A602D
:1009F0008AE7E268734BB2B101221A60FFF712FE78
:100A00006F4D06462B68980707D52B68226923F09F
:100A1000F80343EAC2032B6076E7FFF703FE801B6F
:100A20000228EFD9A9E71A60FFF7FCFD644D0646DE
:100A30002B6899077FF568AFFFF7F4FD801B02284C
:100A4000F6D99AE76269604B7AB101221A60FFF722
:100A5000E9FD5B4D06466B6F9F073FF559AFFFF70A
:100A6000E1FD801B0228F6D987E71A60FFF7DAFD5F
:100A7000534D06466B6F98077FF54AAFFFF7D2FDDF
:100A8000801B0228F6D978E74D4B1A6C12F0805281
:100A900028D101921A6C42F080521A641B6C03F048
:100AA00080530193019B0126484D2B68D9051BD526
:100AB000A368434D012B27D12B6F43F001032B6714
:100AC000FFF7B0FD3E4D074641F288382B6F9B077C
:100AD00039D5002E3FF420AF394A136C23F08053F0
:100AE000136419E70026DFE72B6843F480732B605B
:100AF000FFF798FD07462B68DA05D9D4FFF792FD7A
:100B0000C01B0228F7D938E7052B04D12B6F43F01F
:100B100004032B67D0E72A6F22F001022A672A6FAD
:100B200022F004022A67002BCAD1FFF77BFD41F2B5
:100B3000883807462B6F9807CBD5FFF773FDC01B8E
:100B40004045F7D919E7FFF76DFDC01B4045BDD9FA
:100B500013E71B4DAB6803F00C03082B3FF4CAAE40
:100B60001B4E0023022A336034D1FFF75BFD07469A
:100B70002B6899011ED4226AE3691343626A43EA2F
:100B80008213E26A43EA0263A26A0D4C5208013AF8
:100B900043EA02436B6001233360FFF743FD0546E0
:100BA00023689A013FF5BCAEFFF73CFD401B0228CD
:100BB000F6D9E2E6FFF736FDC01B0228D8D9DCE6FD
:100BC0000038024000004742800E4742007000405B
:100BD00060004742FFF726FD04462B689B017FF526
:100BE0009FAEFFF71FFD001B0228F6D9C5E600BF28
:100BF000134908B58B6803F00C03042B03D0082BB2
:100C000003D0104808BD104808BD4A684B684968C1
:100C100013F4800314BF0C480A48C1F3881118BFAD
:100C2000002302F03F02A1FB0001FFF729FB044B68
:100C30005B68C3F3014301335B00B0FBF3F008BD15
:100C4000003802400024F40040787D012DE9F04195
:100C50000D46044610B90120BDE8F081444B1A68E6
:100C600002F00F028A4228D321688F072DD4C807CB
:100C700040D43F4B1A6802F00F02954266D32268B7
:100C800051076CD4130707D53A4A2169936823F4B6
:100C9000604343EAC1039360FFF7AAFF354B364A2E
:100CA0009B68C3F30313D35CD840344B1860002017
:100CB000FFF76EFC0020BDE8F081CAB21A701B6815
:100CC00003F00F039942C6D1CEE72A4B11F0040F6F
:100CD0001EBF9A6842F4E0529A600E0742BF9A68BB
:100CE00042F460429A609A68A06822F0F0020243DF
:100CF0009A60BCE762681F4B012A1DD11B6813F480
:100D0000003FA8D01B4EB36823F003031343B36026
:100D1000FFF788FC41F288380746B368626803F041
:100D20000C03B3EB820FA4D0FFF77CFCC01B404543
:100D3000F3D90320BDE8F081911E01291B6802D878
:100D400013F0007FDDE713F0020FDAE7EAB21A7062
:100D50001B6803F00F039D427FF47DAF8FE70549C9
:100D6000E0688B6823F4E05303438B608AE700BF9D
:100D7000003C0240003802408125000808000020A5
:100D8000014B1868704700BF08000020044B054A5B
:100D90009B68C3F38223D35C034A1068D840704732
:100DA000003802409125000808000020044B054A45
:100DB0009B68C3F34233D35C034A1068D840704742
:100DC000003802409125000808000020036A23F043
:100DD00001030362036A70B5446882690D6822F0FA
:100DE00073022A438D6823F002032B430A4DA84265
:100DF0000BD1CD688E6923F008032B434D6924F491
:100E00004074354323F004032C43446082614A68F4
:100E10004263036270BD00BF00000140036A23F417
:100E200080730362036A70B54468C2690D6822F07A
:100E300073022A438D6823F4007343EA05230B4DA4
:100E4000A8420DD1CD688E6923F4006343EA0523DF
:100E50004D6924F44054354323F4806344EA051477
:100E60004460C2614A68C263036270BD0000014011
:100E7000036A23F480530362036A30B54468C2698D
:100E80000D6822F4E64242EA05228D6823F40053FD
:100E900043EA0533064DA84202BF4D6924F480445D
:100EA00044EA85144460C2614A680264036230BD4A
:100EB0000000014070470000224A036890420ED0B3
:100EC000B0F1804F0BD0A2F57C42904207D002F5E2
:100ED0008062904203D002F58062904219D14A6844
:100EE00023F070031343174A904204D1CA6823F4D5
:100EF0004073134318E0B0F1804FF7D0124A90428C
:100F0000F4D002F580629042F0D002F58062904207
:100F1000ECD00E4A9042E9D002F580629042E5D0D2
:100F200002F580629042E1D003608B68C3620B6877
:100F30008362044B984204BF0B690363012343613E
:100F4000704700BF00000140000400400040014025
:100F500010B50446A0B190F8393003F0FF021BB978
:100F600080F8382000F0FEFC022384F83930206835
:100F7000211DFFF7A1FF012384F83930002010BDA7
:100F8000012010BD10B50446A0B190F8393003F02F
:100F9000FF021BB980F83820FFF78CFF022384F88A
:100FA00039302068211DFFF787FF012384F839308D
:100FB000002010BD012010BD036A23F0100303625E
:100FC000036A70B5446882690D6822F4E64242EA19
:100FD00005228D6823F0200343EA05130B4DA84238
:100FE0000DD1CD688E6923F0800343EA05134D6966
:100FF00024F44064354323F0400344EA850444600C
:1010000082614A688263036270BD00BF00000140D4
:1010100038B590F83830012B04464FF0020025D047
:10102000012384F8383084F839000C2A18D8DFE816
:1010300002F0071717171E1717172F17171740005B
:101040002068FFF7C3FE236809699A6942F0080225
:101050009A619A6922F004029A619A690A439A6134
:101060000123002084F8393084F8380038BD206826
:10107000FFF7A2FF236809699A6942F400629A6146
:101080009A6922F480629A619A6942EA0122E6E74B
:101090002068FFF7C3FE23680969DA6942F0080295
:1010A000DA61DA6922F00402DA61DA690A43DA61A4
:1010B000D6E72068FFF7DCFE23680969DA6942F4A5
:1010C0000062DA61DA6922F48062DA61DA6942EA9E
:1010D0000122ECE72DE9F0470668C2683369C1696F
:1010E00023F4405313433361044683680069F26874
:1010F0000343606922F41642034322F00C020B43BF
:101100001343F3607369A26923F440731343B1F589
:10111000004F73617A4B7CD19E4203D003F580630C
:101120009E4244D1FFF742FE192505FB00F360689B
:101130004FF064094000B3FBF0F3B3FBF9F34FEA5F
:101140000318FFF733FE636868435B00B0FBF3F7F7
:10115000FFF72CFE636868435B00B0FBF3F3B3FB5F
:10116000F9F309FB1373DB003233B3FBF9F35B00D4
:1011700003F4F877FFF71AFE626868435200B0FB89
:10118000F2FAFFF713FE636868435B00B0FBF3F30A
:10119000B3FBF9F309FB13A3DB003233B3FBF9F321
:1011A00003F0070343443B44B360BDE8F087FFF717
:1011B000EDFD192505FB00F360684FF06409400060
:1011C000B3FBF0F3B3FBF9F34FEA0318FFF7DEFDCF
:1011D000636868435B00B0FBF3F7FFF7D7FD636814
:1011E00068435B00B0FBF3F3B3FBF9F309FB137344
:1011F000DB003233B3FBF9F35B0003F4F877FFF75E
:10120000C5FD626868435200B0FBF2FAFFF7BEFD0D
:10121000B9E79E4202D03B4B9E4240D1FFF7C6FD4C
:10122000676819254FF0640905FB00F3BF00B3FBA5
:10123000F7F3B3FBF9F31F01FFF7B8FD63686843E9
:101240009B00B0FBF3F8FFF7B1FD636868439B00B8
:10125000B0FBF3F3B3FBF9F309FB13831B01323348
:10126000B3FBF9F303F0F008FFF7A0FD62686843F1
:101270009200B0FBF2FAFFF799FD636868439B00A8
:10128000B0FBF3F3B3FBF9F309FB13A31B013233F8
:10129000B3FBF9F303F00F0343EA080383E7FFF717
:1012A00075FD676819254FF0640905FB00F3BF0061
:1012B000B3FBF7F3B3FBF9F31F01FFF767FD6368B7
:1012C00068439B00B0FBF3F8FFF760FD6368684379
:1012D0009B00B0FBF3F3B3FBF9F309FB13831B0192
:1012E0003233B3FBF9F303F0F008FFF74FFD626808
:1012F00068439200B0FBF2FAFFF748FDBDE700BF7C
:101300000010014000140140F8B504460E4617468F
:101310001D4621680B6836EA030301D10020F8BDA1
:101320006B1CF7D095B92368DA6822F4D072DA60C2
:101330005A6922F001025A61202384F8393084F876
:101340003A30002384F838300320F8BDFFF76AF9FB
:10135000C01B8542DDD2E6E710B5044640B390F8E5
:10136000393003F0FF021BB980F8382000F046FB4B
:101370002268242384F83930D36823F40053D360DF
:101380002046FFF7A7FE23681A6922F490421A61EB
:101390005A6922F02A025A61DA6842F40052DA608D
:1013A00000202023E06384F8393084F83A3010BDFF
:1013B000012010BD2DE9F0411F4690F83930202B57
:1013C00004460D4690464FD100294AD0002A48D005
:1013D00090F83830012B47D0012380F838300023B3
:1013E000C363212380F83930FFF71CF9A4F8248067
:1013F0000646A4F82680E38C9BB26BB93B46324686
:1014000040212046FFF780FFB0B9202384F839300F
:1014100084F83800BDE8F081E38C013B9BB2E384A3
:10142000A368B3F5805F32463B464FF0800120460B
:101430000ED1FFF769FF10B10320BDE8F0812B88C2
:101440002268C3F308035360236943B90235D2E726
:10145000FFF75AFF0028EFD123682A785A60013538
:10146000C9E70120BDE8F0810220BDE8F0812DE947
:10147000F0411F4690F83A30202B04460D46904626
:1014800052D100294DD0002A4BD090F83830012B92
:101490004AD0012380F838300023C363222380F828
:1014A0003A30FFF7BFF8A4F82C800646A4F82E8047
:1014B000E08D80B230B9202384F83A3084F83800C7
:1014C000BDE8F081E38D013B9BB2E385A368B3F5F2
:1014D000805F32463B464FF02001204612D1FFF795
:1014E00013FF10B10320BDE8F081236822695B6817
:1014F00022B9C3F3080325F8023BD9E7DBB225F88C
:10150000013BD5E7FFF700FF0028EBD123682169F5
:101510005B686A1C11B92B701546C9E703F07F039D
:10152000F9E70120BDE8F0810220BDE8F08100006C
:1015300084B007B50DF1100E8EE80F00149A08491B
:1015400001A800F02DFB042240F6FF730DEB020111
:1015500004A8FFF72FFF03B05DF804EB04B0704759
:101560007C25000884B010B502AC84E80F00129C02
:10157000082240F6FF7321460DEB0200FFF777FFCC
:1015800023787BB10F4A0023E15C45290ED100216D
:10159000D1540D4A0423E15C45290CD113440022A7
:1015A00003F8042CBDE8104004B07047D154013357
:1015B000042BE9D1EDE7D0180133082B00F8041C07
:1015C000E9D1EFE78C020020D002002010B594B0E2
:1015D0000022274B0192196C41F0805119641B6C59
:1015E000244903F080530193019B02920B6823F47A
:1015F000404343F400430B600B680F9203F44043F5
:101600000293029B01230B9310230C930823109346
:1016100054230224119308A8052308940E941294CD
:101620001393FFF763F900B1FEE70F2303930590CF
:101630004FF480530790214603A804940693FFF7C4
:1016400005FB044600B1FEE7FFF79AFB4FF47A73FF
:10165000B0FBF3F0FFF746F80420FFF759F82246F5
:1016600021464FF0FF30FFF709F814B010BD00BF5E
:1016700000380240007000402DE98048834F844DBF
:1016800099B000243C70FEF7A7FFFFF79FFF814B46
:101690000E941A6B804842F001021A631A6B02F032
:1016A00001020E920E9A0F941A6B42F004021A6312
:1016B0001A6B02F004020F920F9A10941A6B42F008
:1016C00002021A631B6B03F00203224610930221ED
:1016D000109B0226FFF704F9012311A96E4812930B
:1016E000119613941494FFF725F86C4BAC604FF4EB
:1016F000E13A4FF00C09284685E80804EC602C61BB
:10170000C5F81490AC61EC61FFF726FEB84600B155
:10171000FEE7634C634B6060A060E06020612046A0
:101720002360FFF715FC00B1FEE72046FFF72AFC17
:10173000024600B1FEE7129013901590602711A9A0
:1017400020461197FFF764FC834600B1FEE7204670
:10175000554C00F031F9554BC4F808B0204684E8E8
:101760000808C4F80CB0C4F810B0FFF7F1FB00B1E2
:10177000FEE72046FFF706FC024600B1FEE71290A6
:101780001390159011A920461197FFF741FC83464D
:1017900000B1FEE7464F204600F00EF9454BC7F872
:1017A0000CB0384687E8080CC7F810B0C7F814909A
:1017B000C7F818B0C7F81CB0FFF7CEFD024600B15D
:1017C000FEE731463448DFF800A1DFF80091FFF76B
:1017D00087F80120384EDFF8F8B0FEF729FFCDF882
:1017E00030800FCE6C460FC40FCE0FC496E80F00AA
:1017F00084E80F0097E80F00FFF7B4FE504600F0B2
:10180000A6F9C9F800002D482D4C00F0A0F9D9F830
:101810000030CBF800000C930FCC6E460FC60FCCF7
:101820000FC694E80F0086E80F0095E80F00FFF759
:101830007FFE40F6FF7301222C21A4F13000FFF758
:10184000B9FDDBF800300C93A4F1200EBEE80F00C8
:101850006E460FC6BEE80F000FC694E80F0086E87C
:101860000F0095E80F00FFF763FED9F800300A4833
:10187000282B0CBF012200220221FFF731F80A2396
:10188000012210490248FFF795FDA2E70802002057
:10189000D402002000380240000002400044004012
:1018A0001002002000440140500200200048014086
:1018B0009002002000140140A0020020D00200206D
:1018C000E40200207F2500088C020020180300207D
:1018D0004C02002013B5224B002400945A6C42F4B1
:1018E00080425A645A6C02F480420092009A019439
:1018F0001A6C42F080521A641B6C03F080530193FF
:101900000320019BFEF7A8FE224621466FF00B0044
:10191000FEF7B4FE224621466FF00A00FEF7AEFE47
:10192000224621466FF00900FEF7A8FE2246214616
:101930006FF00400FEF7A2FE224621466FF003007E
:10194000FEF79CFE224621466FF00100FEF796FE50
:10195000224621464FF0FF30FEF790FE02B010BD48
:10196000003802400368114A934282B00DD100232F
:1019700000930F4B5A6C42F400325A645B6C03F4D0
:1019800000330093009B02B070470A4A9342FAD199
:1019900000230193064B5A6C42F480225A645B6C1C
:1019A00003F480230193019BEDE700BF0044014055
:1019B00000380240004801407FB503680C4A93425A
:1019C00010D14FF4807301930223029300230393F9
:1019D000049301A9032307480593FEF7ABFE07B064
:1019E0005DF804FB044A9342F9D14FF40073EAE72F
:1019F00000440140000402400048014000B5036873
:101A00001E4A934289B01CD1002301931C4B1D48F0
:101A10001A6C42F400321A641B6C03F40033019315
:101A2000019B0C23039302230493012305930323B7
:101A300006930723079303A9FEF77CFE09B05DF820
:101A400004FB114A9342F9D1002302930C4B0F4837
:101A50005A6C42F020025A645B6C03F0200302933C
:101A6000029BC023039302230493012305930323C2
:101A700006930823079303A9DEE700BF0044004054
:101A800000380240000002400014014000080240FB
:101A90007047FEE7FEE7FEE7FEE7704770477047D6
:101AA00008B5FEF7B3FDBDE80840FEF73EBE0000F6
:101AB0000F49D1F8883043F47003C1F888300D4BDA
:101AC0001A68002042F001021A6098601A6822F039
:101AD000847222F480321A60074A5A601A6822F42B
:101AE00080221A60D8604FF000638B60704700BF9F
:101AF00000ED00E00038024010300024DFF834D060
:101B0000002103E00C4B5B58435004310B480C4B55
:101B100042189A42F6D30B4A02E0002342F8043BF3
:101B2000094B9A42F9D3FFF7C3FF00F015F8FFF70E
:101B3000A3FD704700800120E82600080000002077
:101B4000DC010020DC01002020030020FEE70A2247
:101B5000002100F0C9B8000070B50D4E0D4CA41B5B
:101B6000A4100025A54209D10B4E0C4C00F0FAFC44
:101B7000A41BA4100025A54205D170BD56F8253040
:101B800098470135EEE756F8253098470135F2E7DA
:101B9000E0260008E0260008E0260008E426000809
:101BA0000EB400B59CB04FF402711DABADF814102B
:101BB000029006906FF000410A48049107914FF699
:101BC000FF7153F8042BADF816100068019302A9B9
:101BD00000F010F9029B00221A701CB05DF804EBB3
:101BE00003B070470C0000202DE9F84F804689466D
:101BF00092461F468B465D460A9815F8014B00F049
:101C000089F82044467816F008060BD12D2C0BD10C
:101C10002C7801260BF1020567B1102F14D1302C5E
:101C20000AD011E0AB46E6E72B2C04BF2C780BF171
:101C30000205F1E7302C27D12B7803F0DF03582B76
:101C40004BD16C7810270235002E0CBF6FF000418D
:101C50004FF000410022B1FBF7FE104607FB1E1CAF
:101C6000A4F13003092B11D81C46A7421DDD531CDB
:101C700007D0864516D301D1A44513DB00FB0740EE
:101C8000012215F8014BEBE70A27DDE7A4F1410338
:101C9000192B01D8373CE8E7A4F16103192B04D8CC
:101CA000573CE2E74FF0FF32EBE7531C08D1222309
:101CB000C8F800300846BAF1000F07D1BDE8F88F28
:101CC00006B14042BAF1000F0CD022B1013DCAF872
:101CD0000050BDE8F88F4D46F9E73024002FB3D10E
:101CE0000827B1E7BDE8F88F084B37B51C68084DE9
:101CF000236A002B08BF2B46009313460A46014671
:101D00002046FFF771FF03B030BD00BF0C0000207C
:101D100070000020D0F8EC00704782B001B901A932
:101D200042B14BB113780B601278101C18BF012020
:101D300002B070471046FBE76FF00100F8E72DE9AD
:101D4000F0478E689E4282460C469146984635D8AA
:101D50008A8912F4906F31D0256809696F1A656914
:101D6000022305EB450595FBF3F508F101033B4420
:101D70009D4238BF1D46530531D5294600F044FB2E
:101D8000064650B90C23CAF80030A38943F040033B
:101D9000A3814FF0FF30BDE8F0873A46216900F09B
:101DA000C0FAA38923F4906343F08003A3812661E2
:101DB00065613E44ED1B2660A5604646464528BF4A
:101DC000464632464946206800F0B6FAA3689B1B97
:101DD000A36023681E4426600020BDE8F0872A46E1
:101DE00000F070FB06460028E1D12169504600F062
:101DF000BDFAC7E72DE9F04F9DB0804603938B896C
:101E00001C060D4616460FD50B696BB9402100F034
:101E1000FBFA2860286128B90C23C8F800304FF07D
:101E2000FF30C5E040236B610023099320238DF828
:101E3000293030238DF82A304FF0010B37463C46CD
:101E400014F8013B002B3CD1B7EB060A0BD05346EC
:101E5000324629464046FFF772FF013000F0A3806A
:101E6000099B534409933B78002B00F09C8000238E
:101E70004FF0FF3204930793059206938DF8533089
:101E80001A93052221785048FEF7AAF9671C049B93
:101E9000D8B9D90644BF20228DF853201A0744BF71
:101EA0002B228DF8532022782A2A16D0079A002157
:101EB0000A20274601343B78303B092B51D9C9B160
:101EC00011E0252BC0D02746B9E73F4A801A0BFA0C
:101ED00000F0184304903C46D3E7039A111D1268A2
:101EE0000391002A01DB079204E0524243F002030F
:101EF000079204933B782E2B0ED17B782A2B07F187
:101F0000010132D1039B1A1D1B680392002BB8BF3D
:101F10004FF0FF33023705932C4C397803222046CB
:101F2000FEF75EF938B14023001B03FA00F0049B72
:101F3000034304930137397825488DF82810062289
:101F40007E1CFEF74DF9002835D0224BFBB9039BD0
:101F5000073323F0070308330393099B4B4409938A
:101F60006CE700FB02320121A3E70023059318462A
:101F70000A240F4601313A78303A092A03D9002B56
:101F8000CAD00590C8E704FB00200123F1E703ABAA
:101F900000932A46104B04A94046AFF30080B0F1ED
:101FA000FF3F8146D9D1AB895B063FF538AF099831
:101FB0001DB0BDE8F08F03AB00932A46064B04A981
:101FC000404600F081F8EAE7A3250008A9250008AB
:101FD000AD250008000000003F1D00082DE9F04776
:101FE00091461F468A680B69DDF820809342B8BF8E
:101FF0001346C9F8003091F8432006460C4612B14A
:102000000133C9F800302368990642BFD9F800307F
:102010000233C9F80030256815F0060507D104F130
:10202000190AE368D9F800209B1A9D4229DB94F82D
:1020300043302268003318BF012392062ED404F1E6
:10204000430239463046C047013021D02368E56855
:10205000D9F8002003F00603042B08BFAD1AA368CB
:1020600022690CBF25EAE57500259342C4BF9B1A7F
:10207000ED184FF000091A344D451BD10020BDE882
:10208000F0870123524639463046C047013003D11C
:102090004FF0FF30BDE8F0870135C2E7E1185A1C68
:1020A000302081F84300224494F8451082F8431010
:1020B0000233C4E70123224639463046C047013087
:1020C000E6D009F10109D7E72DE9F04317460A7E6A
:1020D00085B06E2A984606460C460C9B01F1430ECD
:1020E00000F0BC801AD8632A2ED00AD8002A00F04B
:1020F000C880582A00F08A8004F1420584F8422002
:102100002AE0642A01D0692AF6D121681A6811F000
:10211000800F23D0111D1960136827E0732A00F087
:10212000B48008D86F2A2AD0702AE5D10A6842F014
:1021300020020A6003E0752A21D0782ADCD17822B7
:1021400084F845206E4964E01A6801F14205111DCA
:102150001960136884F842300123A3E011F0400FA6
:1021600002F104011960D7D0B2F90030002B03DA74
:102170002D225B4284F8432062490A2217E020683E
:10218000196810F0800F03D0081D18600B6806E076
:1021900010F0400F01F104001860F7D00B88594986
:1021A0006F2A14BF0A220822002084F843006568C1
:1021B000A560002DC0F29C80206820F00400206003
:1021C000002B3FD1002D40F095807546082A0BD199
:1021D0002368DA0708D5236962689A42DEBF302394
:1021E00005F8013C05F1FF35AEEB05032361CDF8A1
:1021F00000803B4603AA21463046FFF7EFFE013040
:1022000055D14FF0FF3005B0BDE8F08381F845208F
:102210003C492268186812F0800F00F104051D6027
:1022200001D0036802E05506FBD50388D00744BF00
:1022300042F0200222601BB9226822F020022260B4
:102240001022B1E77546B3FBF2F002FB1033CB5C12
:1022500005F8013D03460028F5D1B7E708681A687C
:10226000496910F0800F04D0101D186013681960C0
:1022700007E010F0400F02F1040018601368F6D078
:102280001980002323617546B1E71A68111D196092
:102290001568626800212846FDF7A2FF08B1401BBF
:1022A000606063682361002384F843309FE72369FB
:1022B0002A4639463046C0470130A2D023689B07E2
:1022C00007D5002504F11909E368039A9B1A9D427A
:1022D00005DBE068039B9842B8BF184693E70123EB
:1022E0004A4639463046C04701308AD00135EBE7CF
:1022F000002BA7D10B7884F8423004F1420565E742
:10230000C5250008B425000849B1FF2A85BF8A23E6
:1023100003600A704FF0FF3098BF012070470846F5
:10232000704710B5431E0A44914200D110BD11F808
:10233000014B03F8014FF7E7884210B501EB0203A8
:1023400003D8421E99420CD110BD9842F9D281188F
:10235000D21AD34200D110BD13F8014D01F8014D3E
:10236000F7E711F8014B02F8014FEBE738B50546E6
:10237000002945D051F8043C0C1F002BB8BFE418CD
:1023800000F0D6F81F4A1368104633B96360146032
:102390002846BDE8384000F0CCB8A3420CD92168EB
:1023A0006218934204BF1A685B68636004BF5218E6
:1023B00022600460ECE713465A680AB1A242FAD9D7
:1023C00019685818A0420BD120680144581882425D
:1023D0001960DDD1106852685A6001441960D7E76E
:1023E00002D90C232B60D3E7206821188A4204BF4E
:1023F00011685268626004BF091821605C60C7E719
:1024000038BD00BFF801002070B5CD1C25F00305D4
:1024100008350C2D38BF0C25002D064601DBA942DE
:1024200003D90C233360002070BD00F081F8234AEB
:102430001468214691B9224C23681BB9304600F03C
:1024400067F820602946304600F062F8431C26D128
:102450000C233360304600F06CF8E4E70B685B1B3C
:102460001AD40B2B0FD90B60CD50CC18304600F08E
:1024700060F804F10B00231D20F00700C31A1BD0E5
:102480005A42E25070BD8C420DBF63684B68636076
:10249000136018BF0C46E9E70C464968CAE7C41C3C
:1024A00024F00304A04205D0211A304600F030F891
:1024B0000130CDD02560D9E770BD00BFF801002004
:1024C000FC010020F8B5074614460E4621B9114616
:1024D000BDE8F840FFF798BF22B9FFF747FF254650
:1024E0002846F8BD00F026F884420FD92146384628
:1024F000FFF78AFF05460028F2D031462246FFF753
:1025000010FF31463846FFF731FFE9E73546E7E788
:1025100038B5064C002305460846236000F014F841
:10252000431C02D1236803B12B6038BD1C0300207B
:102530007047704751F8040C0028A0F10400BCBF9C
:102540000B58C01870470000044B1968024609B9BF
:1025500003491960186802441A607047000200209D
:1025600020030020F8B500BFF8BC08BC9E467047A9
:0C257000F8B500BFF8BC08BC9E467047E0
:10257C002564000A000000000000000000010203B6
:10258C000406070809000000000102030443005080
:10259C004F534958002E00232D302B2000686C4CD3
:1025AC00006566674546470030313233343536377F
:1025BC0038394142434445460030313233343536A4
:1025CC003738396162636465660000202020202062
:1025DC0020202020282828282820202020202020C7
:1025EC0020202020202020202020208810101010B7
:1025FC00101010101010101010101004040404040B
:10260C000404040404101010101010104141414136
:10261C00414101010101010101010101010101011E
:10262C000101010101011010101010104242424230
:10263C0042420202020202020202020202020202EE
:10264C000202020202021010101020000000000012
:10265C00000000000000000000000000000000006E
:10266C00000000000000000000000000000000005E
:10267C00000000000000000000000000000000004E
:10268C00000000000000000000000000000000003E
:10269C00000000000000000000000000000000002E
:1026AC00000000000000000000000000000000001E
:1026BC00000000000000000000000000000000000E
:0C26CC0000000000000000000000000002
:0826D800D8DBFF7F01000000C8
:0426E000C501000828
:0426E400A101000848
:1026E80001000000100000000024F4001000002089
:1026F80000000000000000000000000000000000D2
:1027080000000000000000000000000000000000C1
:1027180000000000000000000000000000000000B1
:1027280000000000000000000000000000000000A1
:102738000000000000000000000000000000000091
:102748000000000000000000000000000000000081
:10275800430000000000000000000000000000002E
:102768000000000000000000000000000000000061
:10277800430000000000000000000000000000000E
:102788000000000000000000000000000000000041
:1027980043000000000000000000000000000000EE
:1027A8000000000000000000000000000000000021
:1027B80043000000000000000000000000000000CE
:1027C8000000000000000000000000000000000001
:1027D80043000000000000000000000000000000AE
:1027E80000000000000000000000000000000000E1
:1027F800430000000000000000000000000000008E
:1028080000000000000000000000000000000000C0
:10281800430000000000000000000000000000006D
:1028280000000000000000000000000000000000A0
:10283800092300081B1D000800000000D625000819
:10284800A1250008802500088025000880250008AB
:1028580080250008802500088025000880250008BC
:102868008025000880250008FFFFFFFFFFFFFFFF0E
:10287800FFFFFFFFFFFF00000100415343494900EC
:102888000000000000000000000000000000000040
:1028980000000000000000000000415343494900C7
:1028A8000000000000000000000000000000000020
:0C28B80000000000000000000000000014
:0400000508001AFDD8
:00000001FF
