:020000040800F2
:1000000000800120652F0008FD2E0008FF2E00084B
:10001000012F0008032F0008052F00080000000032
:10002000000000000000000000000000D1160008E1
:10003000072F00080000000061170008092F0008C2
:10004000B52F0008B52F0008B52F0008B52F000800
:10005000B52F0008B52F0008B52F0008B52F0008F0
:10006000B52F0008B52F0008B52F0008B52F0008E0
:10007000B52F0008B52F0008B52F0008B52F0008D0
:10008000B52F0008B52F0008B52F000800000000AC
:10009000000000000000000000000000B52F000874
:1000A000B52F0008B52F0008B52F0008B52F0008A0
:1000B000B52F00080D2F0008B52F0008B52F000838
:1000C000B52F0008B52F0008B52F0008B52F000880
:1000D000B52F0008B52F0008B52F0008000000005C
:1000E000B52F0008B52F0008B52F0008000000004C
:1000F000000000000000000000000000B52F000814
:1001000000000000B52F0008B52F0008B52F00082B
:1001100000000000000000000000000000000000DF
:10012000B52F0008B52F0008B52F0008B52F00081F
:10013000B52F0008000000000000000000000000D3
:10014000000000000000000000000000B52F0008C3
:10015000B52F0008B52F0008B52F0008B52F0008EF
:10016000B52F0008B52F00080000000000000000B7
:10017000000000000000000000000000000000007F
:1001800000000000B52F0008000000000000000083
:04019000B52F00087F
:1001A00010B5054C237833B9044B13B10448AFF3B1
:1001B00000800123237010BDDC010020000000003E
:1001C0009031000808B5034B1BB103490348AFF356
:1001D000008008BD00000000E00100209031000810
:1001E00053B94AB9002908BF00281CBF4FF0FF319E
:1001F0004FF0FF3000F07AB9ADF1080C6DE904CE94
:1002000000F006F8DDF804E0DDE9022304B07047F1
:100210002DE9F0478C460D460446089E002B51D12F
:100220008A4217466DD9B2FA82FEBEF1000F0BD09A
:10023000CEF1200C01FA0EF520FA0CFC02FA0EF7B2
:100240004CEA050C00FA0EF44FEA174A250CBCFBE9
:10025000FAF81FFA87F90AFB18CC45EA0C4508FBA7
:1002600009F3AB420AD9ED1908F1FF3280F023817E
:10027000AB4240F22081A8F102083D44ED1AA4B23D
:10028000B5FBFAF00AFB105544EA054400FB09F9F6
:10029000A14509D9E41900F1FF3380F00A81A14595
:1002A00040F2078102383C44A4EB090440EA0840CC
:1002B0000021002E61D024FA0EF400233460736014
:1002C000BDE8F0878B4207D9002E54D0002186E884
:1002D00021000846BDE8F087B3FA83F1002940F019
:1002E0008E80AB4202D3824200F2FA80841A65EB20
:1002F00003050120AC46002E3FD086E81010BDE873
:10030000F08712B90127B7FBF2F7B7FA87FEBEF103
:10031000000F34D1EB1B3A0C1FFA87FC0121B3FB11
:10032000F2F8250C02FB183345EA03450CFB08F3F1
:10033000AB4207D9ED1908F1FF3002D2AB4200F20F
:10034000D1808046ED1AA3B2B5FBF2F002FB105546
:1003500043EA05440CFB00FCA44507D9E41900F16D
:10036000FF3302D2A44500F2B8801846A4EB0C0477
:1003700040EA08409DE731463046BDE8F087CEF1BF
:10038000200405FA0EF307FA0EF720FA04F83A0CE7
:1003900025FA04F448EA0308B4FBF2F14FEA1845E1
:1003A00002FB11441FFA87FC45EA044501FB0CF3EC
:1003B000AB4200FA0EF409D9ED1901F1FF3080F0DB
:1003C0008A80AB4240F2878002393D44EB1A1FFA23
:1003D00088F5B3FBF2F002FB103345EA034500FB5E
:1003E0000CF3AB4207D9ED1900F1FF386FD2AB42E5
:1003F0006DD902383D44EB1A40EA01418FE7C1F163
:10040000200722FA07F88B4005FA01F448EA0303B3
:1004100020FA07FE4FEA134CFD404EEA040EB5FBEE
:10042000FCF94FEA1E440CFB19551FFA83F844EA05
:10043000054509FB08F4AC4202FA01F200FA01FAA0
:1004400008D9ED1809F1FF3043D2AC4241D9A9F1E6
:1004500002091D442D1B1FFA8EFEB5FBFCF00CFBA0
:1004600010554EEA054400FB08F8A04507D9E418EA
:1004700000F1FF3529D2A04527D902381C4440EAB3
:100480000940A4EB0804A0FB02894C45C6464D4632
:1004900015D312D056B1BAEB0E0364EB050404FA7F
:1004A00007F7CB401F43CC40376074600021BDE8A4
:1004B000F0871846F8E69046E0E6C245EAD2B8EB87
:1004C000020E69EB03050138E4E72846D7E740460A
:1004D00091E78146BEE7014678E702383C4445E7AC
:1004E000084608E7A8F102083D442BE7704700BF23
:1004F00008B50B4B1A6842F400721A601A6842F48D
:1005000080621A601A6842F480721A60032000F058
:100510001BF8002002F0B4FC02F0D4FB002008BD60
:10052000003C0240034A044B11681B780B441360E3
:10053000704700BF443F002000000020014B1868B6
:10054000704700BF443F0020074AD36823F4E063AC
:100550001B041B0C43F0BF63000243F4003300F4A0
:10056000E0600343D360704700ED00E0174B30B507
:10057000DC68C4F30224C4F10703251D042B28BF43
:100580000423062D4FF0010505FA03F303F1FF33B1
:100590008CBF033C00241940A14005FA04F4013C3F
:1005A0002240002842EA01024FEA0212AFBF00F1E6
:1005B000604000F00F00064BD2B2A5BF00F56140CD
:1005C000D2B21A5480F8002330BD00BF00ED00E025
:1005D00014ED00E04209012300F01F0003FA00F0CF
:1005E000014B43F82200704700E100E00138B0F110
:1005F000807F0AD2064B074A5860F02182F8231008
:100600000020072298601A6070470120704700BFE1
:1006100010E000E000ED00E0044B1A6804280CBF75
:1006200042F0040222F004021A60704710E000E079
:100630002DE9F04F85B00B68DFF89C81644A019387
:100640004FF001090023019C09FA03F707EA0406A9
:10065000B74240F0AD804C6824F0100ABAF1020FA6
:1006600016D14FEAD30C00EB8C0C03F0070BDCF82F
:1006700020504FEA8B0B4FF00F0E0EFA0BFE25EABF
:100680000E0E0D6905FA0BF545EA0E05CCF8205063
:100690004FEA430C0325D0F800B005FA0CF5ED4302
:1006A00004F0030E0BEA050B0EFA0CFE0AF1FF3AFA
:1006B0004EEA0B0EBAF1010F0095C0F800E015D814
:1006C000D0F808E005EA0E0ECD6805FA0CFA4AEA01
:1006D0000E0EC0F808E0D0F804E02EEA0707C4F3D5
:1006E000001E0EFA03FE4EEA07074760C768009D2A
:1006F0003D408F6807FA0CF73D43C560E50057D5CC
:100700004FF0000BCDF80CB0D8F84470314D47F4E1
:100710008047C8F84470D8F8447007F480470397BE
:10072000039F23F0030707F1804707F59C3703F089
:10073000030CD7F808A04FEA8C0C4FF00F0E0EFAFE
:100740000CFEA8422AEA0E0E39D005F58065A842B3
:1007500037D005F58065A84235D005F58065A842FB
:1007600033D005F58065A84214BF0725042505FA96
:100770000CF545EA0E05BD601568F74314F4803F9B
:100780000CBF3D4035431560556814F4003F0CBF65
:100790003D4035435560956814F4801F0CBF3D40C3
:1007A00035439560D568A40254BF3D403543D560BC
:1007B0000133102B7FF447AF05B0BDE8F08F5D46E5
:1007C000D5E70125D3E70225D1E70325CFE700BF11
:1007D000003C014000000240003802400AB1816143
:1007E00070470904FBE700002DE9F341044618B9FE
:1007F000012002B0BDE8F0810368DD0710D4236852
:10080000980758D423681A0700F19A8023685B0779
:1008100000F1B880A269002A40F019810020E8E7C1
:10082000A64B9A6802F00C02042A07D09A6802F0DC
:100830000C02082A0AD15B68590207D59F4B1B6836
:100840009A03DCD56368002BD9D1D1E763689B4D4F
:10085000B3F5803F11D12B6843F480332B60FFF751
:100860006DFE964D06462B689B03C8D4FFF766FEC7
:10087000801B6428F7D90320BBE7B3F5A02F04D170
:100880002B6843F480232B60E5E72A6822F480324A
:100890002A602A6822F480222A60002BDFD1FFF729
:1008A0004DFE06462B689F03A9D5FFF747FE801B28
:1008B0006428F7D9DFE7814B9A6812F00C0F07D054
:1008C0009A6802F00C02082A11D15B685E020ED40D
:1008D0007A4B1A68950702D5E268012A88D11A680E
:1008E000216922F0F80242EAC1021A608AE7E2684E
:1008F000734BB2B101221A60FFF720FE6F4D06461E
:100900002B68980707D52B68226923F0F80343EA80
:10091000C2032B6076E7FFF711FE801B0228EFD998
:10092000A9E71A60FFF70AFE644D06462B6899078F
:100930007FF568AFFFF702FE801B0228F6D99AE721
:100940006269604B7AB101221A60FFF7F7FD5B4DD7
:1009500006466B6F9F073FF559AFFFF7EFFD801B12
:100960000228F6D987E71A60FFF7E8FD534D0646DF
:100970006B6F98077FF54AAFFFF7E0FD801B0228F9
:10098000F6D978E74D4B1A6C12F0805228D10192BB
:100990001A6C42F080521A641B6C03F0805301936E
:1009A000019B0126484D2B68D9051BD5A368434DF3
:1009B000012B27D12B6F43F001032B67FFF7BEFDFF
:1009C0003E4D074641F288382B6F9B0739D5002EE4
:1009D0003FF420AF394A136C23F08053136419E7B6
:1009E0000026DFE72B6843F480732B60FFF7A6FD3A
:1009F00007462B68DA05D9D4FFF7A0FDC01B0228F3
:100A0000F7D938E7052B04D12B6F43F004032B678C
:100A1000D0E72A6F22F001022A672A6F22F004022F
:100A20002A67002BCAD1FFF789FD41F288380746B3
:100A30002B6F9807CBD5FFF781FDC01B4045F7D939
:100A400019E7FFF77BFDC01B4045BDD913E71B4DE0
:100A5000AB6803F00C03082B3FF4CAAE1B4E002317
:100A6000022A336034D1FFF769FD07462B689901EC
:100A70001ED4226AE3691343626A43EA8213E26A7C
:100A800043EA0263A26A0D4C5208013A43EA024368
:100A90006B6001233360FFF751FD054623689A011F
:100AA0003FF5BCAEFFF74AFD401B0228F6D9E2E64F
:100AB000FFF744FDC01B0228D8D9DCE6003802400D
:100AC00000004742800E47420070004060004742ED
:100AD000FFF734FD04462B689B017FF59FAEFFF7BF
:100AE0002DFD001B0228F6D9C5E600BF134908B545
:100AF0008B6803F00C03042B03D0082B03D01048A1
:100B000008BD104808BD4A684B68496813F4800363
:100B100014BF0C480A48C1F3881118BF002302F023
:100B20003F02A1FB0001FFF75BFB044B5B68C3F3D3
:100B3000014301335B00B0FBF3F008BD0038024015
:100B40000024F40040787D012DE9F0410D46044673
:100B500010B90120BDE8F081444B1A6802F00F0281
:100B60008A4228D321688F072DD4C80740D43F4B31
:100B70001A6802F00F02954266D3226851076CD4BE
:100B8000130707D53A4A2169936823F4604343EA7F
:100B9000C1039360FFF7AAFF354B364A9B68C3F346
:100BA0000313D35CD840344B1860002002F068F97E
:100BB0000020BDE8F081CAB21A701B6803F00F0371
:100BC0009942C6D1CEE72A4B11F0040F1EBF9A6896
:100BD00042F4E0529A600E0742BF9A6842F46042C3
:100BE0009A609A68A06822F0F00202439A60BCE71B
:100BF00062681F4B012A1DD11B6813F4003FA8D067
:100C00001B4EB36823F003031343B360FFF796FC56
:100C100041F288380746B368626803F00C03B3EB0F
:100C2000820FA4D0FFF78AFCC01B4045F3D90320F4
:100C3000BDE8F081911E01291B6802D813F0007FE6
:100C4000DDE713F0020FDAE7EAB21A701B6803F06F
:100C50000F039D427FF47DAF8FE70549E0688B6805
:100C600023F4E05303438B608AE700BF003C02405B
:100C700000380240EA31000808000020014B1868E3
:100C8000704700BF08000020044B054A9B68C3F36F
:100C90008223D35C034A1068D84070470038024072
:100CA000FA31000808000020044B054A9B68C3F392
:100CB0004233D35C034A1068D84070470038024082
:100CC000FA310008080000200F2303600B4B9A68DC
:100CD00002F0030242609A6802F0F00282609A68B1
:100CE00002F4E052C2609B68DB0803F4E053036146
:100CF000034B1B6803F00F030B6070470038024082
:100D0000003C0240036A23F001030362036A70B5EA
:100D1000446882690D6822F073022A438D6823F0CB
:100D200002032B430A4DA8420BD1CD688E6923F0F4
:100D300008032B434D6924F44074354323F0040326
:100D40002C43446082614A684263036270BD00BF05
:100D500000000140036A23F480730362036A70B5E4
:100D60004468C2690D6822F073022A438D6823F437
:100D7000007343EA05230B4DA8420DD1CD688E695F
:100D800023F4006343EA05234D6924F440543543BA
:100D900023F4806344EA05144460C2614A68C26374
:100DA000036270BD00000140036A23F480530362B4
:100DB000036A30B54468C2690D6822F4E64242EA2B
:100DC00005228D6823F4005343EA0533064DA842FB
:100DD00002BF4D6924F4804444EA85144460C26132
:100DE0004A680264036230BD000001400368DA68AB
:100DF00042F00102DA601A6842F001021A60002033
:100E000070477047704770477047704703681A69AA
:100E1000910710B504460ED5DA6892070BD56FF02E
:100E200002021A619B6901229B07027677D0FFF7C5
:100E3000EAFF0023237623681A69500710D5DA6881
:100E400051070DD56FF004021A619B69022213F459
:100E5000407F2276204668D0FFF7D5FF0023237617
:100E600023681A6912070FD5DA6810070CD56FF0DE
:100E700008021A61DB6904229907227620465AD0BB
:100E8000FFF7C1FF0023237623681A69D20610D525
:100E9000DA68D0060DD56FF010021A61DB690822FE
:100EA00013F4407F227620464BD0FFF7ACFF00239F
:100EB000237623681A69D10708D5DA68D20705D5E1
:100EC0006FF001021A61204601F0F2FE23681A69F0
:100ED000100608D5DA68110605D56FF080021A6190
:100EE000204600F066F923681A69520608D5DA68C8
:100EF000500605D56FF040021A612046FFF785FFC6
:100F000023681A69910622D5DA6892061FD56FF018
:100F1000200220461A61BDE8104000F049B9FFF7F1
:100F200071FF2046FFF770FF83E7FFF76BFF204656
:100F3000FFF76AFF92E7FFF765FF2046FFF764FFC0
:100F4000A0E7FFF75FFF2046FFF75EFFAFE710BDAA
:100F5000224A036890420ED0B0F1804F0BD0A2F528
:100F60007C42904207D002F58062904203D002F5A5
:100F70008062904219D14A6823F070031343174AE4
:100F8000904204D1CA6823F44073134318E0B0F1CF
:100F9000804FF7D0124A9042F4D002F5806290421E
:100FA000F0D002F580629042ECD00E4A9042E9D037
:100FB00002F580629042E5D002F580629042E1D075
:100FC00003608B68C3620B688362044B984204BF62
:100FD0000B69036301234361704700BF00000140B8
:100FE000000400400040014010B50446A0B190F854
:100FF000393003F0FF021BB980F8382001F0AAFE57
:10100000022384F839302068211DFFF7A1FF012356
:1010100084F83930002010BD012010BD10B5044601
:10102000A0B190F8393003F0FF021BB980F83820E6
:10103000FFF7E7FE022384F839302068211DFFF70F
:1010400087FF012384F83930002010BD012010BD36
:10105000036A23F010030362036A70B5446882696F
:101060000D6822F4E64242EA05228D6823F020034F
:1010700043EA05130B4DA8420DD1CD688E6923F0CC
:10108000800343EA05134D6924F44064354323F09B
:10109000400344EA8504446082614A6882630362D3
:1010A00070BD00BF0000014038B590F83830012B0A
:1010B00004464FF0020025D0012384F8383084F82C
:1010C00039000C2A18D8DFE802F0071717171E1787
:1010D00017172F17171740002068FFF713FE236814
:1010E00009699A6942F008029A619A6922F0040239
:1010F0009A619A690A439A610123002084F8393081
:1011000084F8380038BD2068FFF7A2FF236809691A
:101110009A6942F400629A619A6922F480629A6143
:101120009A6942EA0122E6E72068FFF713FE236886
:101130000969DA6942F00802DA61DA6922F0040228
:10114000DA61DA690A43DA61D6E72068FFF72CFE34
:1011500023680969DA6942F40062DA61DA6922F423
:101160008062DA61DA6942EA0122ECE7036A10B5CB
:1011700001248C4023EA04030362036A8A401A4371
:10118000026210BD10B5044601220068FFF7EEFFB1
:101190002368064A934202BF5A6C42F400425A64E2
:1011A0001A6842F001021A60002010BD00000140E0
:1011B000704770472DE9F0470668C2683369C16916
:1011C00023F4405313433361044683680069F26893
:1011D0000343606922F41642034322F00C020B43DE
:1011E0001343F3607369A26923F440731343B1F5A9
:1011F000004F73617A4B7CD19E4203D003F580632C
:101200009E4244D1FFF750FD192505FB00F36068AD
:101210004FF064094000B3FBF0F3B3FBF9F34FEA7E
:101220000318FFF741FD636868435B00B0FBF3F709
:10123000FFF73AFD636868435B00B0FBF3F3B3FB71
:10124000F9F309FB1373DB003233B3FBF9F35B00F3
:1012500003F4F877FFF728FD626868435200B0FB9B
:10126000F2FAFFF721FD636868435B00B0FBF3F31C
:10127000B3FBF9F309FB13A3DB003233B3FBF9F340
:1012800003F0070343443B44B360BDE8F087FFF736
:10129000FBFC192505FB00F360684FF06409400072
:1012A000B3FBF0F3B3FBF9F34FEA0318FFF7ECFCE1
:1012B000636868435B00B0FBF3F7FFF7E5FC636826
:1012C00068435B00B0FBF3F3B3FBF9F309FB137363
:1012D000DB003233B3FBF9F35B0003F4F877FFF77D
:1012E000D3FC626868435200B0FBF2FAFFF7CCFC13
:1012F000B9E79E4202D03B4B9E4240D1FFF7D4FC5F
:10130000676819254FF0640905FB00F3BF00B3FBC4
:10131000F7F3B3FBF9F31F01FFF7C6FC63686843FB
:101320009B00B0FBF3F8FFF7BFFC636868439B00CA
:10133000B0FBF3F3B3FBF9F309FB13831B01323367
:10134000B3FBF9F303F0F008FFF7AEFC6268684303
:101350009200B0FBF2FAFFF7A7FC636868439B00BA
:10136000B0FBF3F3B3FBF9F309FB13A31B01323317
:10137000B3FBF9F303F00F0343EA080383E7FFF736
:1013800083FC676819254FF0640905FB00F3BF0073
:10139000B3FBF7F3B3FBF9F31F01FFF775FC6368C9
:1013A00068439B00B0FBF3F8FFF76EFC636868438B
:1013B0009B00B0FBF3F3B3FBF9F309FB13831B01B1
:1013C0003233B3FBF9F303F0F008FFF75DFC62681A
:1013D00068439200B0FBF2FAFFF756FCBDE700BF8E
:1013E0000010014000140140F8B504460E461746AF
:1013F0001D4621680B6836EA030301D10020F8BDC1
:101400006B1CF7D095B92368DA6822F4D072DA60E1
:101410005A6922F001025A61202384F8393084F895
:101420003A30002384F838300320F8BDFFF786F8FF
:10143000C01B8542DDD2E6E710B5044640B390F804
:10144000393003F0FF021BB980F8382001F0CEFCE0
:101450002268242384F83930D36823F40053D360FE
:101460002046FFF7A7FE23681A6922F490421A610A
:101470005A6922F02A025A61DA6842F40052DA60AC
:1014800000202023E06384F8393084F83A3010BD1E
:10149000012010BD2DE9F0411F4690F83A30202B75
:1014A00004460D46904652D100294DD0002A4BD01B
:1014B00090F83830012B4AD0012380F838300023CF
:1014C000C363222380F83A30FFF738F8A4F82C8061
:1014D0000646A4F82E80E08D80B230B9202384F82F
:1014E0003A3084F83800BDE8F081E38D013B9BB2CF
:1014F000E385A368B3F5805F32463B464FF0200199
:10150000204612D1FFF770FF10B10320BDE8F08133
:10151000236822695B6822B9C3F3080325F8023BFC
:10152000D9E7DBB225F8013BD5E7FFF75DFF0028DF
:10153000EBD1236821695B686A1C11B92B701546D1
:10154000C9E703F07F03F9E70120BDE8F08102203D
:10155000BDE8F08108B500F05FFE002008BD30B5A1
:10156000B0F90840028A0B4690E8220085B0842C2E
:1015700014BF0334002403A801900094284600F00F
:101580007BFD01280CBF0398002005B030BD08B5D5
:10159000002808BF012000F08DFF002008BD0120B9
:1015A00000F032BC08B501F0C9F8012803D0BDE84D
:1015B000084000F007B908BD00F1080343604FF090
:1015C000FF32C36003610023826003607047002321
:1015D0000361704743684B609A688A609A685160FB
:1015E0009960036808610133036070470A68531CFF
:1015F00030B50AD103695A684A6091608B605960BE
:10160000036808610133036030BD00F108035C68C2
:101610002568AA42EFD32346F9E741688268036947
:101620008A60826851605968884208BF5A60002207
:101630000261186801381860704700000A4B1B6887
:10164000013308D04FF0500383F31188BFF36F8F3D
:10165000BFF34F8FFEE74FF0500383F31188BFF3C2
:101660006F8FBFF34F8FFEE704000020064800682D
:10167000006880F3088862B661B6BFF34F8FBFF38E
:101680006F8F00DF00BF000008ED00E0DFF80C0006
:10169000016841F4700101607047000088ED00E0CE
:1016A0004FF0807340F8043C074B40F80C3C21F0AD
:1016B00001016FF0020340F8081C40F8202C40F8AC
:1016C000243C4438704700BF3D160008000000006D
:1016D000074B19680868B0E8F04F80F30988BFF33A
:1016E0006F8F4FF0000080F311887047AFF30080D8
:1016F000183E00204FF0500383F31188BFF36F8F23
:10170000BFF34F8F0A4A13680133012B13600DD1C9
:10171000084B1B6813F0FF0F08D04FF0500383F302
:101720001188BFF36F8FBFF34F8FFEE7704700BF85
:101730000400002004ED00E0084A136843B94FF0AC
:10174000500383F31188BFF36F8FBFF34F8FFEE712
:10175000013B13600BB983F311887047040000202C
:10176000EFF30980BFF36F8F154B1A681EF0100F4F
:1017700008BF20ED108A20E9F04F10604DF8043DBD
:101780004FF0500080F31188BFF34F8FBFF36F8F7E
:1017900000F0EEFE4FF0000080F3118808BC1968DD
:1017A0000868B0E8F04F1EF0100F08BFB0EC108AC8
:1017B00080F30988BFF36F8F704700BFAFF30080DD
:1017C000183E002008B54FF0500383F31188BFF393
:1017D0006F8FBFF34F8F00F063FD18B1034B4FF0D5
:1017E00080521A60002383F3118808BD04ED00E0E5
:1017F000064B4FF47A721B68B3FBF2F3044A013BC9
:101800001360044B07221A60704700BF08000020D5
:1018100014E000E010E000E0314B324A13B51968E3
:10182000914208D14FF0500383F31188BFF36F8FBB
:10183000BFF34F8FFEE71A682B4B9A4208D14FF047
:10184000500383F31188BFF36F8FBFF34F8FFEE711
:10185000264B1A78D2B20192FF221A701B78244AC2
:10186000DBB28DF803309DF8033003F050031370A2
:10187000204B07221A6000219DF80300000602F1A8
:10188000FF3423D401B11A601A68120202F4E06234
:101890001A60019B154ADBB21370174B1A6842F4A9
:1018A00070021A601A6842F070421A60FFF7A0FFD7
:1018B000124B00221A60FFF7E9FE114A136843F049
:1018C00040431360FFF7D2FEFFF7B8FE9DF80320F8
:1018D0005200D2B28DF8032001212246CCE700BF8E
:1018E00000ED00E071C20F4170C20F4100E400E062
:1018F000F8010020FC01002020ED00E004000020A1
:1019000034EF00E010B50F4B1A68824218D35C68C0
:101910001919884201BF416818460919596044687D
:1019200001198A4207D1084909688A421FBF5168D4
:101930001268091941609842026018BF186010BD12
:101940001346E1E7103E0020000200202DE9F0419F
:10195000044600F09DFC3E493E4D0B680BBB3E4AE1
:1019600056071FBFD01D20F0070002F570531B1A49
:1019700014BF02464FF470531344083B23F007038F
:10198000364E0B6000207060326058601860981A04
:101990001360334B50601860324B18604FF00043B7
:1019A0002B602F68274216D1002C41D004F1080388
:1019B00058071CBF23F00703083363B1294A166890
:1019C000B342904607D8254A15686868834204D810
:1019D00009688D4207D100242AE02C68002CF7D03A
:1019E0002A462546F1E7296814681160C21A102AB0
:1019F0000FD9E818410708D04FF0500383F311883E
:101A0000BFF36F8FBFF34F8FFEE742606B60FFF74E
:101A100079FF13496B680868F61A1F4386424FF036
:101A20000003C8F8006038BF0E6008346F602B6098
:101A300000F0C8FC630708D04FF0500383F311880F
:101A4000BFF36F8FBFF34F8FFEE72046BDE8F081F5
:101A500000020020043E002004020020103E00206E
:101A60000C3E0020083E002010B5044670B3184A12
:101A700050F8043C1268134208D14FF0500383F32E
:101A80001188BFF36F8FBFF34F8FFEE750F8081C2C
:101A900041B14FF0500383F31188BFF36F8FBFF351
:101AA0004F8FFEE723EA020340F8043C00F0F0FB0E
:101AB000084A54F8043C1168A4F108000B44136070
:101AC000FFF720FFBDE8104000F07CBC10BD00BF58
:101AD000043E0020083E002070B51546026C866B5F
:101AE000044642B905689DB9406800F07DFE656016
:101AF0000136A66370BD6DB9806801F085FAA368F0
:101B0000226C13446268A360934201D32368A360EC
:101B10000020EDE7C06801F077FA236CE2682168E5
:101B20005B421A448A42E2603EBF62689B18E360EF
:101B3000022DEDD10EB1013EEAE73046D8E703466B
:101B400010B41A6C084662B1D9685C681144A142AD
:101B5000D96024BF1968D960D9685DF8044B01F0D9
:101B600053BA5DF8044B704770B50446FFF7C2FDE9
:101B700094F8455004F124066DB2002D14DCFF23C7
:101B800084F84530FFF7D8FDFFF7B4FD94F84450D2
:101B900004F110066DB2002D12DCFF2384F84430EE
:101BA000BDE87040FFF7C8BD636A002BE7D0304640
:101BB00000F032FD08B100F0BBFD013D6DB2DCE785
:101BC0002369002BE9D0304600F026FD08B100F073
:101BD000AFFD013D6DB2DEE738B50D46044640B9B4
:101BE0004FF0500383F31188BFF36F8FBFF34F8F14
:101BF000FEE7FFF77FFD206CE36B2268A2604343A2
:101C0000D1181B1A13446160E3600021FF23A16314
:101C100084F8443084F8453095B9236963B104F100
:101C2000100000F0F9FC38B10A4B4FF080521A60F6
:101C3000BFF34F8FBFF36F8FFFF77EFD012038BDDD
:101C400004F11000FFF7B8FC04F12400FFF7B4FC26
:101C5000F2E700BF04ED00E070B50D46064640B95E
:101C60004FF0500383F31188BFF36F8FBFF34F8F93
:101C7000FEE748434830FFF769FE044638B145B9EE
:101C80002060E663256401212046FFF7A5FF20467A
:101C900070BD00F148030360F3E700002DE9FF4742
:101CA000894601921F46044640B94FF0500383F322
:101CB0001188BFF36F8FBFF34F8FFEE7002940F00D
:101CC0008880036C002B00F084804FF0500383F376
:101CD0001188BFF36F8FBFF34F8FFEE7019E002E79
:101CE00000F082804FF0500383F31188BFF36F8FB1
:101CF000BFF34F8FFEE7019D1DB9FFF71DFD0020CB
:101D000058E016B902A800F0C9FCFFF715FD00F075
:101D1000BFFAFFF7EFFC94F84430FF2B08BF84F8BC
:101D2000448094F84530FF2B08BF84F84580FFF7C6
:101D300003FD01A902A800F0C1FC002843D1FFF770
:101D4000D9FCA66BE56BFFF7F7FCAE4235D10199E4
:101D500004F1100000F046FC2046FFF705FF00F0FC
:101D600031FB38B94FF08053CAF80030BFF34F8FC2
:101D7000BFF36F8F0126FFF7BDFCA26BE36B9A42A6
:101D800001D3022FB7D13A4649462046FFF7A4FEB9
:101D9000636A1BB104F1240000F03EFC38B1194B1A
:101DA0004FF080521A60BFF34F8FBFF36F8FFFF772
:101DB000C3FC012004B0BDE8F0872046FFF7D4FE45
:101DC00000F000FBD6E72046FFF7CEFE00F0FAFA5F
:101DD00095E7022F02D1E36B012B0AD100F0AEFC94
:101DE00000283FF47BAF00264FF00008DFF814A076
:101DF000C1E74FF0500383F31188BFF36F8FBFF338
:101E00004F8FFEE704ED00E010B5024600210120EF
:101E1000FFF722FF044638B1002343600360C3602C
:101E20001A461946FFF73AFF204610BD2DE9FF4735
:101E3000884601929946044640B94FF0500383F317
:101E40001188BFF36F8FBFF34F8FFEE7002940F07B
:101E5000A580036C002B00F0A1804FF0500383F3AA
:101E60001188BFF36F8FBFF34F8FFEE7019E002EE7
:101E700000F09A804FF0500383F31188BFF36F8F07
:101E8000BFF34F8FFEE7636AE660002B6DD004F16D
:101E900024005FE0019D1DB9FFF74EFC284667E076
:101EA00016B902A800F0FAFBFFF746FC00F0F0F9C3
:101EB000FFF720FC94F84430FF2B08BF84F84470EF
:101EC00094F84530FF2B08BF84F84570FFF734FCC9
:101ED00001A902A800F0F2FB002852D1FFF70AFC8A
:101EE000A56BFFF729FC002D45D1236833B9FFF717
:101EF00001FC606800F032FCFFF71EFC019904F160
:101F0000240000F06FFB2046FFF72EFE00F05AFA87
:101F100038B94FF08053CAF80030BFF34F8FBFF38A
:101F20006F8F0126FFF7E6FBA56B002DB2D041466F
:101F30002046E668FFF703FEB9F1000FA3D123683E
:101F4000013DA56313B900F09FFC6060236963B194
:101F500004F1100000F060FB38B1154B4FF08052D7
:101F60001A60BFF34F8FBFF36F8FFFF7E5FB0120C0
:101F700004B0BDE8F0872046FFF7F6FD00F022FA36
:101F8000CFE72046FFF7F0FD00F01CFAFFF7B2FBA9
:101F9000A56BFFF7D1FB002DC3D17FE700F0CEFB8F
:101FA00000283FF463AF00260027DFF804A0B9E75C
:101FB00004ED00E0064A13681968064B19B94FF0A2
:101FC000FF321A6070471268D268D2685268F8E728
:101FD0001C3E0020F43E0020F8B51B4B1B4E1D6834
:101FE0000446306804300F46FFF717FB334640B90C
:101FF0003168174EC96A32680120884022EA00021F
:102000003260621C07D137B1196812480431BDE84B
:10201000F840FFF7DFBA2C441A68A542546007D98C
:102020000D4A10681968BDE8F8400431FFF7DEBAC0
:102030000A4A106819680431FFF7D8FA084B1A6881
:10204000944238BF1C60F8BD3C3F0020183E002081
:10205000C43E0020143F0020203E00201C3E0020F3
:10206000F43E00204FF0500383F31188BFF36F8FCD
:10207000BFF34F8FFEE700002DE9F84F4FEA820AC9
:10208000804650460F4699460B9EFFF75FFC05467B
:10209000002800F096805420FFF758FC04460028E2
:1020A00000F08C80AAF1040A056355447B1E25F0DC
:1020B000070A00F134020F37597802F8011B13F8B0
:1020C000011F09B1BB42F7D10A9D062D28BF062585
:1020D0004FF0000B271DE5626564384684F843B075
:1020E000C4F848B0FFF773FAC5F1070504F118000A
:1020F000FFF76DFAC4F84CB02461A561646284F8FE
:1021000050B04A4641465046FFF7CAFA206006B131
:102110003460FFF7EFFA324B324E1A68DFF8F08086
:1021200001321A603568002D4ED134601B68012BD6
:102130001DD108EB05001435FFF73EFA8C2DF8D1C0
:10214000DFF8D090284D4846FFF736FA2846FFF7CB
:1021500033FA2648FFF730FA2548FFF72DFA2548CD
:10216000FFF72AFA244BC3F80090244B1D60244A41
:1021700024491368086801331360E26A012505FAEF
:1021800002F3034314200B6000FB02803946FFF783
:1021900021FAFFF7D1FA1C4B1B6863B13368DA6A86
:1021A000E36A9A4207D2194B4FF080521A60BFF38C
:1021B0004F8FBFF36F8F2846BDE8F88F2846FFF793
:1021C00053FC4FF0FF35F6E70F4B1B68002BCED1C9
:1021D0003368DA6AE36A9A4298BF3460C7E700BF9F
:1021E000B03E0020183E0020DC3E0020FC3E0020D7
:1021F000283F0020143F00201C3E0020203E0020ED
:10220000C03E0020C43E0020103F002004ED00E04E
:10221000243E0020C83E002013B5174B0193002434
:1022200000942346802215491548FFF725FF012811
:1022300014D14FF0500383F31188BFF36F8FBFF3B6
:102240004F8F104B4FF0FF321A600F4B18600F4B3F
:102250001C6002B0BDE81040FFF7DEBA013008D1C3
:102260004FF0500383F31188BFF36F8FBFF34F8F8D
:10227000FEE702B010BD00BFF03E0020D0310008E4
:10228000FD240008F43E0020103F00203C3F0020C9
:10229000024A136801331360704700BFBC3E002040
:1022A0002DE9F84F3C4B1B68002B53D13B4B1C686E
:1022B00001341C60BCB93A4B1A68126842B14FF045
:1022C000500383F31188BFF36F8FBFF34F8FFEE787
:1022D000344A1968106818601160334A1368013372
:1022E0001360FFF767FE314D314F2B689C424FF072
:1022F000000B3ED3DFF8A880DFF8C490D8F80020A8
:10230000126872BB4FF0FF322A6032E006F1040A15
:102310005046FFF782F9B16A19B106F11800FFF7CC
:102320007CF9F06AD9F80030012202FA00F1194371
:10233000204BC9F800104FF0140E51460EFB003030
:10234000FFF748F93868F16AC26A914228BF4FF036
:10235000010BD3E7184A1368013313604FF0000BE9
:1023600011E0D8F80020D268D66871688C42CDD2CE
:1023700029603A680F4BD16A14224A439A58022ABC
:1023800028BF4FF0010B0D4A1268002A18BF4FF00A
:10239000010B5846BDE8F88FBC3E00203C3F0020B2
:1023A0001C3E0020203E0020F83E0020F43E00208D
:1023B000183E0020243E0020B83E0020403F002070
:1023C000C43E00202DE9F843314C236843B94FF057
:1023D000500383F31188BFF36F8FBFF34F8FFEE776
:1023E000FFF788F92368013B236024682CB100249F
:1023F000FFF7A2F92046BDE8F883264B1B68002BA7
:10240000F5D0DFF8A890244FDFF8A480D9F8003089
:10241000E3B90CB1FFF7CEFD204D2C6844B1204E3E
:102420000127FFF73DFF00B13760013CF9D12C6077
:102430001B4B1B68002BDAD01A4B4FF080521A60EE
:10244000BFF34F8FBFF36F8F0124D1E7D9F80C3062
:10245000DC68261D04F11800FFF7DFF83046FFF7AF
:10246000DCF8E26A3968012505FA02F314200B430F
:1024700000FB028031463B60FFF7ACF80A4BE26A92
:102480001B68DB6A9A4224BF054B1D60BEE700BF94
:10249000BC3E0020B03E0020C43E0020B83E0020DC
:1024A000403F002004ED00E0183E0020FC3E0020EC
:1024B000243E002008B540B90E4B4FF080521A6000
:1024C000BFF34F8FBFF36F8F08BD0B4B196841B13E
:1024D0004FF0500383F31188BFF36F8FBFF34F8F1B
:1024E000FEE7FFF7D5FEFFF777FDFFF76BFF00284C
:1024F000E2D008BD04ED00E0BC3E002008B5174E58
:10250000174C236863B9174B1B68012BF8D9164B7E
:102510004FF080521A60BFF34F8FBFF36F8FEFE71A
:10252000FFF7B6FE3568FFF74DFF002DE9D0FFF746
:10253000E1F8F368DD68281DFFF76FF80B4A1368B0
:10254000013B13602368013B2360FFF7F5F8286B1C
:10255000FFF78AFA2846FFF787FAD2E7283F0020DC
:10256000B43E0020243E002004ED00E0B03E0020F8
:10257000174B1A68174B10B512B101221A6010BD23
:102580001A60154B1B68B3FA83F3DBB2C3F11F0368
:10259000142212495A4388188C5844B94FF05003FA
:1025A00083F31188BFF36F8FBFF34F8FFEE744684B
:1025B0000832646844600A44944204BF626842601E
:1025C000142202FB03135B68DA68054BD6E700BFF1
:1025D000BC3E0020403F0020C43E0020243E00209E
:1025E000183E002010B50C4640B94FF0500383F35D
:1025F0001188BFF36F8FBFF34F8FFEE7054B19684C
:102600001831FEF7F3FF20460121BDE81040FFF727
:10261000E3BC00BF183E002038B5C368DC6844B98D
:102620004FF0500383F31188BFF36F8FBFF34F8FC9
:10263000FEE704F118052846FEF7EFFF114B1B6873
:10264000E3B9251D2846FEF7E8FF0F49E26A08684E
:102650000123934003430B600C4B1420294600FBDD
:102660000230FEF7B7FF0A4BE26A1B68DB6A9A4248
:1026700083BF084B01201860002038BD294606485A
:10268000EFE700BFBC3E0020C43E0020243E0020F7
:10269000183E0020403F0020FC3E002008B508B94D
:1026A000FFF7E0FC034B1B680360034B1B684360B0
:1026B00008BD00BFF83E00203C3F002038B50D4665
:1026C000044640B94FF0500383F31188BFF36F8F76
:1026D000BFF34F8FFEE741B94FF0500383F31188EA
:1026E000BFF36F8FBFF34F8FFEE7FFF703F80E4B7B
:1026F00019682B685A1C10D00C4A20681268904246
:10270000626801D091420DD2881A83420AD95B1ABD
:1027100013442B602046FFF7C1FF0024FFF70CF89D
:10272000204638BD0124F9E73C3F0020F83E002058
:10273000014B01221A607047403F0020054B1B6887
:1027400033B1054B1B68002B0CBF022000207047E3
:1027500001207047103F0020BC3E00202DE9F041D1
:102760000446002838D01D4DC36A2A68D26A9342B5
:1027700032D282691A4E002AA1BF2A68D26AC2F1F7
:10278000070282611427426907FB03639A4220D142
:1027900000F104084046FEF740FF124A48B9E06ADB
:1027A0004743F3592BB913680121814023EA010300
:1027B00013602B681168D86AE062012383400B43E1
:1027C00013601423414603FB0060BDE8F041FEF7AF
:1027D00001BF2B68DB6AC362BDE8F081183E0020B0
:1027E000243E0020C43E0020F8B5044608B900206D
:1027F000F8BD224B1B68984208D04FF0500383F37A
:102800001188BFF36F8FBFF34F8FFEE7836C43B91F
:102810004FF0500383F31188BFF36F8FBFF34F8FD7
:10282000FEE7C16A426C013B91428364DFD0002B1A
:10283000DDD1051D2846FEF7F0FE114E114A50B9B4
:10284000E76A1421794373582BB913680120B84003
:1028500023EA00031360636CE362C3F10701A16123
:102860001168012404FA03F008431060142000FBEF
:1028700003602946FEF7AEFE2046F8BD183E002054
:10288000243E0020C43E0020044B1A681AB1196887
:102890008A6C01328A641868704700BF183E0020B5
:1028A00084B010B502AC84E80F00129C082240F6F8
:1028B000FF7321460DEB0200FEF7ECFD23787BB1A0
:1028C0000F4A0023E15C45290ED10021D1540D4A65
:1028D0000423E15C45290CD11344002203F8042CA5
:1028E000BDE8104004B07047D1540133042BE9D146
:1028F000EDE7D0180133082B00F8041CE9D1EFE70D
:10290000DC3F00202040002080B5124E124F8EB0D8
:10291000002319464FF0FF323868104DFFF786FA52
:102920000F4B0C930FCD6C460FC40FCD0FC495E821
:102930000F0084E80F0096E80F00FFF7B1FF0023B7
:102940001A4619463868FFF7A9F90120FEF71FFE5D
:10295000DEE700BFE03F002068400020F03F00209D
:10296000503F0020094B00EB800000F2A46018608B
:1029700001EB8101064B01F2A4611960054B1B6854
:102980005863054B1B685963704700BF583F0020D0
:102990004C3F00205C3F00209C3F002080B5002180
:1029A0001848194EFEF7EEFB00211848FEF7EAFB27
:1029B00037460320FEF7EBFD00234FF0FF321946A8
:1029C0003068134C134DFFF731FA134800F0F3FA57
:1029D0002060124800F0EFFA23682860282B0CBF13
:1029E0000122002202210E48FDF7F8FE2968206826
:1029F000FFF7B8FF00231A4619463868FFF74EF96B
:102A0000D7E700BF5C3F0020684000209C3F0020CB
:102A10006C400020983F0020DC3F00202040002038
:102A20000000024030B595B00022274B0192196C8E
:102A300041F0805119641B6C244903F080530193C9
:102A4000019B02920B6823F4404343F400430B6064
:102A50000B680F9203F440430293029B01230B93F4
:102A600010230C930823109354230224119308A8D5
:102A7000052308940E9412941393FDF7B5FE00B14C
:102A8000FEE705904FF48053079021460F2503A8D9
:102A9000049403950693FEF757F8044600B1FEE749
:102AA000FEF7ECF84FF47A73B0FBF3F0FDF79EFD00
:102AB0000420FDF7B1FD224629464FF0FF30FDF717
:102AC00055FD15B030BD00BF003802400070004019
:102AD0002DE98048674B93B000241C70FDF708FD7A
:102AE000FFF7A0FF644B03941A6B644842F00102A5
:102AF0001A631A6B02F001020392039A04941A6B90
:102B000042F004021A631A6B02F004020492049A5F
:102B100005941A6B42F002021A631B6B03F0020366
:102B2000059322460221059B0225FDF757FE01234E
:102B300052480C930BA90B950D940E94FDF778FD5C
:102B40004F48504B84604FF4E1370C2680E88800F2
:102B5000C460046146618461C461FEF76DFC00B12C
:102B6000FEE7494C494BA0604FF0190B4FF6674AFE
:102B70002061204684E80808C4F80CA0FEF734FA67
:102B800000B1FEE72046FEF749FA024600B1FEE733
:102B90004FF0600941F2EE280D900F900BA92046EE
:102BA000CDF82C90CDF83080FEF77EFA00B1FEE72C
:102BB00001902046364C00F0F7F8364A019BA3609E
:102BC000204684E80408C4F80CA02361FEF70CFA40
:102BD00000B1FEE72046FEF721FA024600B1FEE70B
:102BE0000D900F900BA92046CDF83080CDF82C9099
:102BF000FEF75AFA804600B1FEE7204600F0D4F80E
:102C00002548264B466180E88801C0F80C80C0F852
:102C10001080C0F81880C0F81C80FEF70DFC064636
:102C200000B1FEE70246294614481D4CFDF7D6FDCB
:102C300012A806AD40F8406DFEF7B1FC194B1860C4
:102C40000FCC0FC554F8043B2B60314606A8FEF7A5
:102C500086FC154B18600FCC0BAD0FC523682B609D
:102C600031460BA8FEF77BFC104B1860FEF772FC98
:102C7000FEE700BF503F0020003802400000024045
:102C800024400020004400405C3F002000440140FC
:102C90009C3F002000480140E03F0020001401401C
:102CA000A831000868400020483F0020D83F00209D
:102CB0000268034B9A4201D1FDF734BC704700BF54
:102CC0000004004013B5224B002400945A6C42F4D7
:102CD00080425A645A6C02F480420092009A019435
:102CE0001A6C42F080521A641B6C03F080530193FB
:102CF0000320019BFDF728FC224621466FF00B00C4
:102D0000FDF734FC224621466FF00A00FDF72EFC49
:102D1000224621466FF00900FDF728FC2246214695
:102D20006FF00400FDF722FC224621466FF00300FD
:102D3000FDF71CFC22460F216FF00100FDF716FC89
:102D400022460F214FF0FF30FDF710FC02B010BDFE
:102D5000003802400368114A934282B00DD100232B
:102D600000930F4B5A6C42F400325A645B6C03F4CC
:102D700000330093009B02B070470A4A9342FAD195
:102D800000230193064B5A6C42F480225A645B6C18
:102D900003F480230193019BEDE700BF0044014051
:102DA00000380240004801407FB503680C4A934256
:102DB00010D14FF4807301930223029300230393F5
:102DC000049301A9032307480593FDF731FC07B0DD
:102DD0005DF804FB044A9342F9D14FF40073EAE72B
:102DE00000440140000402400048014000B503686F
:102DF0001E4A934289B01CD1002301931C4B1D48ED
:102E00001A6C42F400321A641B6C03F40033019311
:102E1000019B0C23039302230493012305930323B3
:102E200006930723079303A9FDF702FC09B05DF899
:102E300004FB114A9342F9D1002302930C4B0F4833
:102E40005A6C42F020025A645B6C03F02003029338
:102E5000029BC023039302230493012305930323BE
:102E600006930823079303A9DEE700BF0044004050
:102E700000380240000002400014014000080240F7
:102E800030B5014689B000221D20FDF76FFB1D20E3
:102E9000FDF7A0FB0025154B02951A6C144C42F06F
:102EA00002021A641B6C03F00203029301A903A837
:102EB000029BFDF709FFFDF7E7FE0E4B236040F292
:102EC000E733E36040000C4BB0FBF3F00138606087
:102ED00020462561A560FEF787F820B92046FDF75A
:102EE00085FF09B030BD0120FBE700BF003802407C
:102EF000704000200004004040420F007047FEE791
:102F0000FEE7FEE7FEE77047FEF74CBB0148FDF722
:102F10007DBF00BF704000200F49D1F8883043F4D6
:102F20007003C1F888300D4B1A68002042F001028E
:102F30001A6098601A6822F0847222F480321A6053
:102F4000074A5A601A6822F480221A60D8604FF04B
:102F500000638B60704700BF00ED00E00038024066
:102F600010300024DFF834D0002103E00C4B5B5814
:102F7000435004310B480C4B42189A42F6D30B4A8B
:102F800002E0002342F8043B094B9A42F9D3FFF7D1
:102F9000C3FF00F015F8FFF79BFD7047008001208C
:102FA0002033000800000020DC010020DC010020AC
:102FB000AC400020FEE70A22002100F0B1B800007A
:102FC00070B50D4E0D4CA41BA4100025A54209D1CF
:102FD0000B4E0C4C00F0DCF8A41BA4100025A542FD
:102FE00005D170BD56F8253098470135EEE756F803
:102FF000253098470135F2E71833000818330008E8
:10300000183300081C33000810B5431E0A449142CF
:1030100000D110BD11F8014B03F8014FF7E72DE97E
:10302000F84F8046894692461F468B465D460A9871
:1030300015F8014B00F08AF82044467816F008068F
:103040000BD12D2C0BD12C7801260BF1020567B189
:10305000102F14D1302C0AD011E0AB46E6E72B2C10
:1030600004BF2C780BF10205F1E7302C27D12B7827
:1030700003F0DF03582B4BD16C7810270235002E5C
:103080000CBF6FF000414FF000410022B1FBF7FE92
:10309000104607FB1E1CA4F13003092B11D81C4657
:1030A000A7421DDD531C07D0864516D301D1A44588
:1030B00013DB00FB0740012215F8014BEBE70A2761
:1030C000DDE7A4F14103192B01D8373CE8E7A4F16F
:1030D0006103192B04D8573CE2E74FF0FF32EBE7CE
:1030E000531C08D12223C8F800300846BAF1000F5B
:1030F00007D1BDE8F88F06B14042BAF1000F0CD0FD
:1031000022B1013DCAF80050BDE8F88F4D46F9E7FD
:103110003024002FB3D10827B1E7BDE8F88F0000B5
:10312000084B37B51C68084D236A002B08BF2B4697
:10313000009313460A4601462046FFF770FF03B08E
:1031400030BD00BF0C00002070000020D0F8EC0063
:10315000704782B001B901A942B14BB113780B603D
:103160001278101C18BF012002B070471046FBE710
:103170006FF00100F8E749B1FF2A85BF8A23036099
:103180000A704FF0FF3098BF012070470846704723
:10319000F8B500BFF8BC08BC9E467047F8B500BF44
:0831A000F8BC08BC9E46704714
:1031A800DE3100089D290008000000000000000032
:1031B80080000000D531000809290008FDFF000043
:1031C800000000008000000049444C45006D79541F
:1031D80061736B30320064656661756C7454617339
:1031E8006B00000000000000000001020304060755
:1031F800080900000000010203044300504F53492E
:1032080058002E00002020202020202020202828C0
:10321800282828202020202020202020202020208E
:1032280020202020208810101010101010101010CE
:1032380010101010100404040404040404040410FE
:10324800101010101010414141414141010101018C
:103258000101010101010101010101010101010156
:103268001010101010104242424242420202020262
:103278000202020202020202020202020202020226
:1032880010101010200000000000000000000000D6
:103298000000000000000000000000000000000026
:1032A8000000000000000000000000000000000016
:1032B8000000000000000000000000000000000006
:1032C80000000000000000000000000000000000F6
:1032D80000000000000000000000000000000000E6
:1032E80000000000000000000000000000000000D6
:1032F80000000000000000000000000000000000C6
:083308000000000000000000BD
:0833100000CFFF7F0100000067
:04331800C5010008E3
:04331C00A101000803
:1033200001000000AAAAAAAA0024F40010000020AC
:10333000000000000000000000000000000000008D
:10334000000000000000000000000000000000007D
:10335000000000000000000000000000000000006D
:10336000000000000000000000000000000000005D
:10337000000000000000000000000000000000004D
:10338000000000000000000000000000000000003D
:1033900043000000000000000000000000000000EA
:1033A000000000000000000000000000000000001D
:1033B00043000000000000000000000000000000CA
:1033C00000000000000000000000000000000000FD
:1033D00043000000000000000000000000000000AA
:1033E00000000000000000000000000000000000DD
:1033F000430000000000000000000000000000008A
:1034000000000000000000000000000000000000BC
:103410004300000000000000000000000000000069
:10342000000000000000000000000000000000009C
:103430004300000000000000000000000000000049
:10344000000000000000000000000000000000007C
:103450004300000000000000000000000000000029
:10346000000000000000000000000000000000005C
:103470007731000853310008000000000C320008CA
:103480000A3200080B3200080B3200080B32000829
:103490000B3200080B3200080B3200080B32000818
:1034A0000B3200080B320008FFFFFFFFFFFFFFFF9A
:1034B000FFFFFFFFFFFF00000100415343494900A8
:1034C00000000000000000000000000000000000FC
:1034D0000000000000000000000041534349490083
:1034E00000000000000000000000000000000000DC
:0C34F000000000000000000000000000D0
:0400000508002F655B
:00000001FF
